:100000000C9441000C9489040C94B0040C94D70413
:100010000C944D050C944D050C944D050C94310435
:100020000C944D050C944D050C944D050C94FE0458
:100030000C944D050C944D050C944D050C944D05F8
:100040000C944D050C944D050C944D050C944D05E8
:100050000C944D05B101C101E101010221023102FF
:100060004102510200600062800062009E000AAC02
:10007000009E00A88000A800B8000AE800B800BCF4
:10008000800011241FBECFE5D8E0DEBFCDBFE4E67F
:10009000F0E040E017C0B591A5913591259105910B
:1000A00007FD0CC095918591EF01F92FE82F059080
:1000B0000D92A217B307D9F7FE0104C01D92A21733
:1000C000B307E1F7E138F40731F70E9489010C9496
:0600D0002A05F894FFCFA1
:1000D6006F927F928F929F92AF92BF92CF92DF9252
:1000E600EF92FF920F931F93CF93DF934111FFC0BF
:1000F600811108C08DE2489FF0011124EE59FF4F8F
:1001060013A209C0813039F49DE2499FF001112400
:10011600EE59FF4F83A3762EC42FD0E08DE28C9F3D
:1001260080018D9F100D1124F801EE59FF4F7F01BC
:1001360017A2C8018E579F4F0E94A703C8018A576E
:100146009F4F0E94A703F70184A581116EC0872DDA
:10015600807F84FB992790F9E701938B85FB99278C
:1001660090F9978B86FB992790F9938F87FB8827C1
:1001760080F9878FC8018E589F4F5C010E94A703A4
:10018600F801EA58FF4F6F01CF010E94A703C8018B
:1001960086589F4F7C010E94A703F801E258FF4F43
:1001A6004F01CF010E94A703662463946BA60657EE
:1001B6001F4FC8010E94A7038FE39CE90197F1F73F
:1001C60000C000001BA6C8010E94A703770C770C8D
:1001D600770C770C74FA882780F98B8B75FA882749
:1001E60080F98F8B76FA882780F98B8F77FA7724B8
:1001F60070F87F8EC5010E94A703C6010E94A7035F
:10020600C7010E94A703C4010E94A7036BA6C801E9
:100216000E94A703EFE3FCE93197F1F700C0000065
:100226001BA6C8010E94A70362C0813009F05FC007
:10023600872D81709DE29C9F80019D9F100D11244A
:10024600E801CE59DF4F8B8371FA882780F98F83B7
:1002560072FA882780F98B8773FA882780F98F8747
:1002660074FA882780F98B8B75FA882780F98F8B2B
:1002760076FA882780F98B8F77FA772470F87F8E45
:10028600CE010E94A703C8018A599F4F0E94A70367
:10029600C80186599F4F0E94A703C80182599F4FE4
:1002A6000E94A703C8018E589F4F0E94A703C8014A
:1002B6008A589F4F0E94A703C80186589F4F0E94E5
:1002C600A703C80182589F4F0E94A70381E08BA70E
:1002D60006571F4FC8010E94A7038FE39CE90197A9
:1002E600F1F700C000001BA6C8010E94A703DF911A
:1002F600CF911F910F91FF90EF90DF90CF90BF901D
:0C030600AF909F908F907F906F900895B3
:100312000E9415058FE890E00E94350584E990E07F
:100322000E943C0589E990E00E9435050E94610225
:100332000E9460040E9449058093BB008823D1F388
:1003420060E3680F40E081E00E946B00E091BB0037
:10035200F0E0E830F10570F7E65DFF4F0C944305DD
:100362008091BA000E944F051092BB0004C00E9407
:1003720049058093BB008091BB008823C1F3DACF8B
:1003820085B382FB882780F98093BA000E944F05CB
:100392001092BB0004C00E9449058093BB0080916B
:1003A200BB008823C1F390E0C0971816190624F405
:1003B20085B3846085BBBECF85B38B7F85BBBACF47
:1003C20085B3881F8827881F8093BA000E944F0533
:1003D2001092BB0004C00E9449058093BB0080912B
:1003E200BB008823C1F390E0C0971816190624F4C5
:1003F20085B3806885BB9ECF85B38F7785BB9ACF47
:1004020082B383FB882780F98093BA000E944F054C
:100412001092BB0004C00E9449058093BB008091EA
:10042200BB008823C1F390E0C0971816190624F484
:1004320082B3886082BB7ECF82B3877F82BB7ACF52
:100442008091BA000E944F051092BB0004C00E9426
:1004520049058093BB008091BB008823C1F36ACF1A
:100462008091BA000E944F051092BB0004C00E9406
:1004720049058093BB008091BB008823C1F35ACF0A
:100482008091BA000E944F051092BB0004C00E94E6
:1004920049058093BB008091BB008823C1F34ACFFA
:1004A2008091BA000E944F051092BB0004C00E94C6
:1004B20049058093BB008091BB008823C1F33ACFEA
:1004C200EF92FF920F931F93CF93C0E0ACC0EC2E3C
:1004D200F12C8DE28E9D80018F9D100D1124C8019B
:1004E2008E579F4F0E941D03C8018A579F4F0E943B
:1004F2001D03C80186579F4F0E941D03F801EE5944
:10050200FF4F84A5813039F5CF010E941D03C80138
:100512008A599F4F0E941D03C80186599F4F0E940E
:100522001D03C80182599F4F0E941D03C8018E58A6
:100532009F4F0E941D03C8018A589F4F0E941D03AE
:10054200C80186589F4F0E941D03C80182589F4FC1
:100552000E941D031CC081111AC08DE28E9D800174
:100562008F9D100D1124C8018E589F4F0E941D03AC
:10057200C8018A589F4F0E941D03C80186589F4F89
:100582000E941D03C80182589F4F0E941D032FEF36
:1005920086E791E0215080409040E1F700C00000E2
:1005A2008DE28E9DF0018F9DF00D1124EE59FF4FCB
:1005B20084A5813031F44C2F68E380E00E946B0007
:1005C20010C081110EC04C2F63E30E946B004C2FB0
:1005D20062E380E00E946B004C2F68E280E00E94A0
:1005E2006B008FE99FE00197F1F700C000004C2FEC
:1005F2006FE080E00E946B008FE99FE00197F1F7C6
:1006020000C000004C2F61E080E00E946B008FE987
:100612009FE00197F1F700C000004C2F66E080E0F8
:100622000E946B00CF5FCC2309F451CFCF911F9171
:080632000F91FF90EF90089575
:10063A00FC012181243008F07DC03081383008F077
:10064A007BC08281823008F079C0213011F130F00C
:10065A002230D1F1233009F452C072C081110DC089
:10066A002AB381E090E002C0880F991F3A95E2F719
:10067A00809582238ABB80E008952AB381E090E0C6
:10068A0002C0880F991F3A95E2F7822B8ABB80E055
:10069A00089581110DC027B381E090E002C0880F50
:1006AA00991F3A95E2F78095822387BB80E00895E7
:1006BA0027B381E090E002C0880F991F3A95E2F7CC
:1006CA00822B87BB80E0089581110DC024B381E09D
:1006DA0090E002C0880F991F3A95E2F7809582232D
:1006EA0084BB80E0089524B381E090E002C0880FC3
:1006FA00991F3A95E2F7822B84BB80E00895811115
:10070A000DC021B381E090E002C0880F991F3A958D
:10071A00E2F78095822381BB80E0089521B381E0CE
:10072A0090E002C0880F991F3A95E2F7822B81BBAD
:10073A0080E0089581E0089581E0089581E00895B8
:04074A0080E00895AE
:10074E00FC012181243008F07DC03081383008F062
:10075E007BC08381823008F079C0213011F130F0F6
:10076E002230D1F1233009F452C072C081110DC074
:10077E002BB381E090E002C0880F991F3A95E2F703
:10078E00809582238BBB80E008952BB381E090E0AF
:10079E0002C0880F991F3A95E2F7822B8BBB80E03F
:1007AE00089581110DC028B381E090E002C0880F3A
:1007BE00991F3A95E2F78095822388BB80E00895D1
:1007CE0028B381E090E002C0880F991F3A95E2F7B6
:1007DE00822B88BB80E0089581110DC025B381E086
:1007EE0090E002C0880F991F3A95E2F78095822318
:1007FE0085BB80E0089525B381E090E002C0880FAC
:10080E00991F3A95E2F7822B85BB80E008958111FE
:10081E000DC022B381E090E002C0880F991F3A9577
:10082E00E2F78095822382BB80E0089522B381E0B7
:10083E0090E002C0880F991F3A95E2F7822B82BB97
:10084E0080E0089581E0089581E0089581E00895A3
:04085E0080E0089599
:100862001F920F920FB60F9211242F933F934F9323
:100872005F936F937F938F939F93AF93BF93EF9306
:10088200FF936091A4007091A5008091A6009091C1
:10089200A700E0916000F09161000995FF91EF914E
:1008A200BF91AF919F918F917F916F915F914F9186
:0E08B2003F912F910F900FBE0F901F90189541
:1008C0001092B2001092AA0081E08093AE001092C4
:1008D000B60080EB90E00E941D038CEA90E00E943D
:1008E0001D0388EA90E00E941D0384EB90E00E94C3
:1008F0001D038DB180648DB98DB18F7E8DB98DB1A1
:100900008F7D8DB98DB188608DB98DB184608DB9C1
:02091000089548
:100912001F920F920FB60F9211242F933F934F9372
:100922005F936F937F938F939F93AF93BF93EF9355
:10093200FF93E0919E00F0919F000995FF91EF9146
:10094200BF91AF919F918F917F916F915F914F91E5
:0E0952003F912F910F900FBE0F901F901895A0
:100960001F920F920FB60F9211242F933F934F9324
:100970005F936F937F938F939F93AF93BF93EF9307
:10098000FF93E091A000F091A1000995FF91EF91F4
:10099000BF91AF919F918F917F916F915F914F9197
:0E09A0003F912F910F900FBE0F901F90189552
:1009AE001F920F920FB60F9211242F933F934F93D6
:1009BE005F936F937F938F939F93AF93BF93EF93B9
:1009CE00FF93E091A200F091A3000995FF91EF91A2
:1009DE00BF91AF919F918F917F916F915F914F9149
:0E09EE003F912F910F900FBE0F901F90189504
:1009FC001F920F920FB60F9211248F939F93809199
:100A0C00B8009091B90001969093B9008093B8000A
:0E0A1C009F918F910F900FBE0F901F90189515
:100A2A00CF93C0E00EC08C2F90E09C01220F331FA1
:100A3A00220F331F820F931F81579F4F0E941D035E
:0A0A4A00CF5FC33080F3CF91089511
:100A5400EC010E9454050E945305CE010E945505E5
:060A6400CE010E945105C5
:0E0A6A0021E0FC01248323830E94A70308954A
:0E0A780021E0FC01248313820E94A70308954D
:0C0A8600EE0FFF1F0590F491E02D099485
:080A9200779BFECF8FB10895A0
:040A9A000C940000B8
:040A9E008FB908956F
:040AA2000E94690045
:020AA6000895B1
:020AA8000895AF
:020AAA000895AD
:100AAC00000001010100010102000101030001012C
:100ABC00040001010500010106000101070001010C
:0D0ACC00010101010201010103010101000E
:0F0AD900020201010107020101010303010101F2
:040AE8000701010100
:040AEC0006010101FD
:040AF00005010101FA
:040AF40004010100F8
:00000001FF
