:100000000C944E000C941C090C9443090C946A093E
:100010000C945C0A0C945C0A0C945C0A0C94960890
:100020000C945C0A0C945C0A0C945C0A0C94B30962
:100030000C945C0A0C945C0A0C945C0A0C945C0AA8
:100040000C945C0A0C945C0A0C945C0A0C945C0A98
:100050000C945C0A0060006280006200ED0014C62F
:1000600000ED00F38000F300F700155100F700FBEE
:100070008000FB010B001555010B010E80010E01E4
:100080000F001565010F01108001100111001566A8
:1000900001110115800115011900156711241FBEFA
:1000A000CFE5D8E0DEBFCDBFE4E5F0E040E017C02B
:1000B000B591A59135912591059107FD0CC09591BC
:1000C0008591EF01F92FE82F05900D92A217B30744
:1000D000D9F7FE0104C01D92A217B307E1F7EC396E
:1000E000F40731F70E9478000C94100AF894FFCFBF
:1000F00084EA97E00E944C0A0E9480060E94BD029A
:100100000E945D0864E070E084E30E94040A65E0F8
:1001100070E085E30E94040A66E070E086E30E94D6
:10012000040A67E070E087E30E94040A83E090E03D
:100130000E941B0A8093120140E069E08BED90E081
:100140000E94F40880911001813009F084C065E1BB
:1001500071E08FE890E00E94790380911501813071
:10016000A9F060911401643088F470E00E94040AE0
:1001700040E06091150181E00E949F0181E0809341
:100180001501809114018F5F8093140183E090E04A
:100190000E941B0A809312018F3FA1F280911301EC
:1001A0008111D0CF0E94400AC0E022C00C2F10E085
:1001B000C80104960E941B0A80931101C8010E9485
:1001C0001B0A8093120190911101891781F040E080
:1001D0006EE08FEB90E00E94F40881E080931301C1
:1001E00080910E018F5F80930E01833019F0CF5FF5
:1001F000C430E0F280911301813009F4A3CF40E0D4
:1002000067E085EE90E00E94F40881E0809313019E
:1002100082E08093100184EB0E94E3076093F70073
:100220007093F8008093F9009093FA002FEF83ED1C
:1002300090E3215080409040E1F700C0000080E052
:100240000E94E3076093F7007093F8008093F90031
:100250009093FA0077CF823009F074CF80910F012C
:1002600081110BC00E94400A40E06CE08EEC90E0EF
:100270000E94F40881E080930F0165E171E08FE84E
:1002800090E00E94790360911501613009F45ACF22
:1002900040E081E00E949F010E945D08809115016D
:1002A0008233E1F0833389F1813309F044C081E086
:1002B0000E94DF092FEF81EE94E0215080409040B2
:1002C000E1F700C000000E94CA098093180160E3B2
:1002D000680F40E081E00E949F012DC082E00E94F3
:1002E000DF092FEF81EE94E0215080409040E1F74C
:1002F00000C000000E94CA098093170160E3680FE4
:1003000040E081E00E949F0116C083E00E94DF0967
:100310002FEF81EE94E0215080409040E1F700C043
:1003200000000E94CA098093160160E3680F40E054
:0E03300081E00E949F0181E08093150103CFC0
:10033E006F927F928F929F92AF92BF92CF92DF92E7
:10034E00EF92FF920F931F93CF93DF934111FFC054
:10035E00811108C08DE2489FF0011124EE59FF4F24
:10036E0013A209C0813039F49DE2499FF001112496
:10037E00EE59FF4F83A3762EC42FD0E08DE28C9FD3
:10038E0080018D9F100D1124F801EE59FF4F7F0152
:10039E0017A2C8018E579F4F0E949304C8018A5717
:1003AE009F4F0E949304F70184A581116EC0872D83
:1003BE00807F84FB992790F9E701938B85FB992722
:1003CE0090F9978B86FB992790F9938F87FB882757
:1003DE0080F9878FC8018E589F4F5C010E9493044D
:1003EE00F801EA58FF4F6F01CF010E949304C80134
:1003FE0086589F4F7C010E949304F801E258FF4FEC
:10040E004F01CF010E949304662463946BA6065796
:10041E001F4FC8010E9493048FE39CE90197F1F7E7
:10042E0000C000001BA6C8010E949304770C770C35
:10043E00770C770C74FA882780F98B8B75FA8827DE
:10044E0080F98F8B76FA882780F98B8F77FA77244D
:10045E0070F87F8EC5010E949304C6010E9493041A
:10046E00C7010E949304C4010E9493046BA6C801A5
:10047E000E949304EFE3FCE93197F1F700C000000E
:10048E001BA6C8010E94930462C0813009F05FC0B0
:10049E00872D81709DE29C9F80019D9F100D1124E0
:1004AE00E801CE59DF4F8B8371FA882780F98F834D
:1004BE0072FA882780F98B8773FA882780F98F87DD
:1004CE0074FA882780F98B8B75FA882780F98F8BC1
:1004DE0076FA882780F98B8F77FA772470F87F8EDB
:1004EE00CE010E949304C8018A599F4F0E94930423
:1004FE00C80186599F4F0E949304C80182599F4F8D
:10050E000E949304C8018E589F4F0E949304C80105
:10051E008A589F4F0E949304C80186589F4F0E948D
:10052E009304C80182589F4F0E94930481E08BA7C9
:10053E0006571F4FC8010E9493048FE39CE9019751
:10054E00F1F700C000001BA6C8010E949304DF91C2
:10055E00CF911F910F91FF90EF90DF90CF90BF90B2
:0C056E00AF909F908F907F906F90089549
:10057A00EF92FF920F931F93CF93C0E0ACC0EC2E83
:10058A00F12C8DE28E9D80018F9D100D1124C801E2
:10059A008E579F4F0E940904C8018A579F4F0E9495
:1005AA000904C80186579F4F0E940904F801EE59B1
:1005BA00FF4F84A5813039F5CF010E940904C80193
:1005CA008A599F4F0E940904C80186599F4F0E9469
:1005DA000904C80182599F4F0E940904C8018E5814
:1005EA009F4F0E940904C8018A589F4F0E9409041C
:1005FA00C80186589F4F0E940904C80182589F4F1C
:10060A000E9409041CC081111AC08DE28E9D8001CE
:10061A008F9D100D1124C8018E589F4F0E94090406
:10062A00C8018A589F4F0E940904C80186589F4FE3
:10063A000E940904C80182589F4F0E9409042FEFA3
:10064A0086E791E0215080409040E1F700C0000029
:10065A008DE28E9DF0018F9DF00D1124EE59FF4F12
:10066A0084A5813031F44C2F68E380E00E949F0119
:10067A0010C081110EC04C2F63E30E949F014C2FC2
:10068A0062E380E00E949F014C2F68E280E00E94B2
:10069A009F018FE99FE00197F1F700C000004C2FFE
:1006AA006FE080E00E949F018FE99FE00197F1F7D8
:1006BA0000C000004C2F61E080E00E949F018FE99A
:1006CA009FE00197F1F700C000004C2F66E080E040
:1006DA000E949F01CF5FCC2309F451CFCF911F9184
:0806EA000F91FF90EF900895BD
:1006F2006F927F928F929F92AF92BF92CF92DF9230
:10070200EF92FF920F931F93CF93DF930F92CDB788
:10071200DEB77C0191E099836115710509F467C028
:100722004B01612C5EC0C62CD12CF601EE0FFF1FCF
:10073200EE0FFF1FEE0DFF1D138A560184E0A80E77
:10074200B11CAA0CBB1CAA0CBB1CAE0CBF1CC50165
:100752000E949304712C35C0872D90E0880F991F59
:10076200880F991FBE016F5F7F4F81579F4F0E9475
:100772004F078981811124C0072D10E0F801EE0F87
:10078200FF1FEE0FFF1FE155FF4FEC0DFD1D808196
:10079200F40180830CC0BE016F5F7F4FC801880FD8
:1007A200991F880F991F8E0D9F1D0E944F078981E7
:1007B200882389F38FE59AEE0197F1F700C00000D4
:1007C200739493E0971540F6CC0CDD1CCC0CDD1C29
:1007D200F701EC0DFD1D81E0838BC5010E9493049E
:1007E2006394E3E0E61508F09ECF80E001C082E06A
:1007F2000F90DF91CF911F910F91FF90EF90DF90BB
:10080200CF90BF90AF909F908F907F906F90089500
:10081200FC012181243008F07DC03081383008F09D
:100822007BC08281823008F079C0213011F130F032
:100832002230D1F1233009F452C072C081110DC0AF
:100842002AB381E090E002C0880F991F3A95E2F73F
:10085200809582238ABB80E008952AB381E090E0EC
:1008620002C0880F991F3A95E2F7822B8ABB80E07B
:10087200089581110DC027B381E090E002C0880F76
:10088200991F3A95E2F78095822387BB80E008950D
:1008920027B381E090E002C0880F991F3A95E2F7F2
:1008A200822B87BB80E0089581110DC024B381E0C3
:1008B20090E002C0880F991F3A95E2F78095822353
:1008C20084BB80E0089524B381E090E002C0880FE9
:1008D200991F3A95E2F7822B84BB80E0089581113B
:1008E2000DC021B381E090E002C0880F991F3A95B4
:1008F200E2F78095822381BB80E0089521B381E0F5
:1009020090E002C0880F991F3A95E2F7822B81BBD3
:1009120080E0089581E0089581E0089581E00895DE
:0409220080E00895D4
:10092600FC012181243008F07DC03081383008F088
:100936007BC08381823008F079C0213011F130F01C
:100946002230D1F1233009F452C072C081110DC09A
:100956002BB381E090E002C0880F991F3A95E2F729
:10096600809582238BBB80E008952BB381E090E0D5
:1009760002C0880F991F3A95E2F7822B8BBB80E065
:10098600089581110DC028B381E090E002C0880F60
:10099600991F3A95E2F78095822388BB80E00895F7
:1009A60028B381E090E002C0880F991F3A95E2F7DC
:1009B600822B88BB80E0089581110DC025B381E0AC
:1009C60090E002C0880F991F3A95E2F7809582233E
:1009D60085BB80E0089525B381E090E002C0880FD2
:1009E600991F3A95E2F7822B85BB80E00895811125
:1009F6000DC022B381E090E002C0880F991F3A959E
:100A0600E2F78095822382BB80E0089522B381E0DD
:100A160090E002C0880F991F3A95E2F7822B82BBBD
:100A260080E0089581E0089581E0089581E00895C9
:040A360080E00895BF
:100A3A00FC012181243008F07DC03081383008F073
:100A4A007BC08381823008F079C0213011F130F007
:100A5A002230D1F1233009F452C072C061110DC0A5
:100A6A002BB381E090E002C0880F991F3A95E2F714
:100A7A00809582238BBB80E008952BB381E090E0C0
:100A8A0002C0880F991F3A95E2F7822B8BBB80E050
:100A9A00089561110DC028B381E090E002C0880F6B
:100AAA00991F3A95E2F78095822388BB80E00895E2
:100ABA0028B381E090E002C0880F991F3A95E2F7C7
:100ACA00822B88BB80E0089561110DC025B381E0B7
:100ADA0090E002C0880F991F3A95E2F78095822329
:100AEA0085BB80E0089525B381E090E002C0880FBD
:100AFA00991F3A95E2F7822B85BB80E00895611130
:100B0A000DC022B381E090E002C0880F991F3A9588
:100B1A00E2F78095822382BB80E0089522B381E0C8
:100B2A0090E002C0880F991F3A95E2F7822B82BBA8
:100B3A0080E0089581E0089581E0089581E00895B4
:040B4A0080E00895AA
:100B4E0010C00E94320A58F00E942B0A40F029F47D
:100B5E005F3F29F00C94460A51110C943A0A0C94FA
:100B6E00590A0E94910968F39923B1F3552391F321
:100B7E00951B550BBB27AA2762177307840738F0FE
:100B8E009F5F5F4F220F331F441FAA1FA9F335D05B
:100B9E000E2E3AF0E0E832D091505040E695001C0F
:100BAE00CAF72BD0FE2F29D0660F771F881FBB1FC9
:100BBE00261737074807AB07B0E809F0BB0B802DA7
:100BCE00BF01FF2793585F4F3AF09E3F510578F0D3
:100BDE000C94460A0C943A0A5F3FE4F3983ED4F321
:100BEE00869577956795B795F7959F5FC9F7880FA7
:100BFE00911D9695879597F90895E1E0660F771FF9
:100C0E00881FBB1F621773078407BA0720F0621B89
:0E0C1E00730B840BBA0BEE1F88F7E095089558
:100C2C000FC00E942B0A38F00E94320A20F0952344
:100C3C0011F00C94460A0C94590A11240C943A0A9B
:100C4C000E94910970F3959FC1F3950F50E0551FC9
:100C5C00629FF001729FBB27F00DB11D639FAA2705
:100C6C00F00DB11DAA1F649F6627B00DA11D661F54
:100C7C00829F2227B00DA11D621F739FB00DA11D75
:100C8C00621F839FA00D611D221F749F3327A00D2F
:100C9C00611D231F849F600D211D822F762F6A2FCB
:100CAC0011249F5750409AF0F1F088234AF0EE0F30
:100CBC00FF1FBB1F661F771F881F91505040A9F75D
:100CCC009E3F510580F00C94460A0C943A0A5F3F03
:100CDC00E4F3983ED4F3869577956795B795F79599
:100CEC00E7959F5FC1F7FE2B880F911D9695879511
:040CFC0097F90895C7
:100D00008F929F92AF92BF92CF92DF92EF92FF921B
:100D10001F93CF93DF9310E04CC080E2189FE00157
:100D20001124CE0181579F4F4C010E940904CE012E
:100D30008D569F4F5C010E940904CE0189569F4F3A
:100D40006C010E940904CE0185569F4F7C010E94D0
:100D50000904C4010E949304C5010E949304C601C2
:100D60000E949304C7010E949304CE0181569F4FB5
:100D70005C010E940904CE018D559F4F6C010E94B9
:100D80000904CE0189559F4F7C010E940904C55575
:100D9000DF4FCE010E940904C5010E949304C601E1
:100DA0000E949304C7010E949304CE010E94930401
:100DB0001F5F112309F4B1CFDF91CF911F91FF90F5
:100DC000EF90DF90CF90BF90AF909F908F9008955D
:100DD00011C00E942B0A38F00E94320A20F039F428
:100DE0009F3F19F426F40C94590A0EF4E095E7FBA2
:100DF0000C94460AE92F0E94910958F3BA1762072A
:100E000073078407950720F079F4A6F50C94390A46
:100E10000EF4E0950B2EBA2FA02D0B01B901900115
:100E20000C01CA01A0011124FF27591B99F0593F59
:100E300050F4503E68F11A16F040A22F232F342FA1
:100E40004427585FF3CF469537952795A795F040EF
:100E50005395C9F77EF41F16BA0B620B730B840B04
:100E6000BAF09150A1F0FF0FBB1F661F771F881FBC
:100E7000C2F70EC0BA0F621F731F841F48F4879514
:100E800077956795B795F7959E3F08F0B0CF939506
:0E0E9000880F08F09927EE0F97958795089523
:100E9E00FC016115710509F448C09181943008F088
:100EAE0046C08081883008F044C09130A1F028F00F
:100EBE009230F9F0933059F13EC029B330E0A901D8
:100ECE0002C0559547958A95E2F7CA018170FB01DC
:100EDE00808380E0089526B330E0A90102C05595C5
:100EEE0047958A95E2F7CA018170FB01808380E005
:100EFE00089523B330E0A90102C0559547958A9510
:100F0E00E2F7CA018170FB01808380E0089520B36F
:100F1E0030E0A90102C0559547958A95E2F7CA01BE
:100F2E008170FB01808380E0089582E0089581E066
:0A0F3E00089581E0089580E0089511
:100F4800CF92DF92EF92FF926B017C0180910D01AD
:100F580081111BC060E083EF90E00E941D05A7018E
:100F6800960160E070E080EA91E40E94240A2FE68E
:100F780032E143E05AE30E94510A0E94C5087BBD52
:100F88006ABD81E080930D0115C0813099F461E05C
:100F980083EF90E00E941D052FE632E143E05AE31B
:100FA800C701B6010E94510A0E94C5087BBD6ABDEF
:0E0FB80010920D01FF90EF90DF90CF90089502
:100FC600CF92DF92EF92FF92682F70E080E090E080
:100FD6000E94220824E330E847EB5BE30E94550AAF
:100FE60020E030E040E85FE30E94250A6B017C01C7
:100FF6001FBC8AE08EBD83EF90E00E94090461E089
:1010060083EF90E00E941D052FE632E143E05AE3AC
:10101600C701B6010E94510A0E94C5087BBD6ABD80
:101026008FB780688FBF89B7806189BFC701B60156
:0A103600FF90EF90DF90CF90089537
:10104000E89409C097FB3EF4909580957095619562
:101050007F4F8F4F9F4F9923A9F0F92F96E9BB2718
:101060009395F695879577956795B795F111F8CF94
:10107000FAF4BB0F11F460FF1BC06F5F7F4F8F4FFF
:101080009F4F16C0882311F096E911C0772321F0F5
:101090009EE8872F762F05C0662371F096E8862F8D
:1010A00070E060E02AF09A95660F771F881FDAF7E4
:0A10B000880F9695879597F908952B
:1010BA00CF93C1E0C0930501C093FD0010920101D6
:1010CA0083E091E00E9409048FEF90E00E940904F6
:1010DA008BEF90E00E940904E7E0F1E0C283C3834A
:1010EA00CF010E94090487E091E00E9493048DB128
:1010FA0080648DB98DB18F7D8DB98DB180618DB9C7
:10110A008DB188608DB98DB184608DB98DB18160E2
:10111A008DB98DB18D7F8DB98EB181608EB9CF9128
:02112A00089526
:10112C001F920F920FB60F9211242F933F934F9350
:10113C005F936F937F938F939F93AF93BF93EF9333
:10114C00FF936091F7007091F8008091F9009091F5
:10115C00FA00E0916000F09161000995FF91EF9128
:10116C00BF91AF919F918F917F916F915F914F91B3
:0E117C003F912F910F900FBE0F901F9018956E
:10118A000E94990988F09F5798F0B92F9927B7516B
:10119A00B0F0E1F0660F771F881F991F1AF0BA9511
:1011AA00C9F714C0B13091F00E94390AB1E008952C
:1011BA000C94390A672F782F8827B85F39F0B93F1E
:1011CA00CCF3869577956795B395D9F73EF49095C4
:0E11DA008095709561957F4F8F4F9F4F0895C0
:1011E800EF92FF920F931F93CF93DF937C01D62F3B
:1011F800142FC0E000E013C0CF3041F4011106C045
:10120800412F60EC80E00E949F0101E0F701EC0FA4
:10121800F11D412F608181E00E949F01CF5FCD17B2
:1012280058F3DF91CF911F910F91FF90EF900895A0
:101238001F920F920FB60F9211242F933F934F9343
:101248005F936F937F938F939F93AF93BF93EF9326
:10125800FF93E091ED00F091EE000995FF91EF9179
:10126800BF91AF919F918F917F916F915F914F91B6
:0E1278003F912F910F900FBE0F901F90189571
:101286001F920F920FB60F9211242F933F934F93F5
:101296005F936F937F938F939F93AF93BF93EF93D8
:1012A600FF93E091EF00F091F0000995FF91EF9127
:1012B600BF91AF919F918F917F916F915F914F9168
:0E12C6003F912F910F900FBE0F901F90189523
:1012D4001F920F920FB60F9211242F933F934F93A7
:1012E4005F936F937F938F939F93AF93BF93EF938A
:1012F400FF93E091F100F091F2000995FF91EF91D5
:10130400BF91AF919F918F917F916F915F914F9119
:0E1314003F912F910F900FBE0F901F901895D4
:1013220057FD9058440F551F59F05F3F71F0479594
:10133200880F97FB991F61F09F3F79F08795089579
:10134200121613061406551FF2CF4695F1DF08C098
:10135200161617061806991FF1CF869571056105B5
:04136200089408954E
:101366001F920F920FB60F9211248F939F93809125
:101376000B0190910C01019690930C0180930B0147
:0E1386009F918F910F900FBE0F901F901895A2
:10139400CF9310920A0187E091E00E9493041FB852
:1013A400779BFECFCFB181E080930A0187E091E083
:0A13B4000E9493048C2FCF9108953E
:1013BE00CF93C82F10920A0187E091E00E94930408
:1013CE00CFB9779BFECF81E080930A0187E091E051
:0813DE000E949304CF910895D1
:1013E600092E0394000C11F4882352F0BB0F40F42D
:1013F600BF2B11F460FF04C06F5F7F4F8F4F9F4F6D
:02140600089547
:10140800E199FECF7FBB6EBB8DBB8CB384608CBB78
:081418008CB382608CBB0895C7
:10142000EC010E94610A0E94600ACE010E94620AD9
:06143000CE010E945E0ADD
:10143600E199FECF9FBB8EBB8CB381608CBB8DB315
:02144600089507
:0E1448005058BB27AA270E94E8060C94F3090F
:0E14560000240A9416161706180609060895B3
:0E14640000240A9412161306140605060895B5
:0E147200E894BB2766277727CB0197F90895EA
:0C14800040E061E080E00E949F010895C0
:0C148C0097F99F6780E870E060E0089529
:0A14980090936100809360000895B6
:0814A2000E94A7050C94F30958
:0814AA000E9416060C94F309E0
:0614B2009FEF80EC08959D
:0414B8000C94000090
:0414BC000E94760014
:0214C00008958D
:0214C20008958B
:0214C400089589
:1014C6000000010101000101020001010300010108
:1014D60004000101050001010600010107000101E8
:0D14E60001010101020101010301010100EA
:1014F30000020001010200010202000103020001D7
:1015030004020101050201010602010107020101B2
:101513003738392F343536783132332D43303D2B3C
:0F15230077726F6E672070617373776F726400F9
:0D153200526F6F6D203120746F20393A0028
:0A153F0070617373776F72643A00F5
:0815490077656C636F6D6500AE
:041551000000010194
:041555000701010188
:041559000601010185
:04155D000501010182
:041561000401010080
:011565000382
:011566000183
:011567000182
:01156800641E
:01156900641D
:01156A00641C
:00000001FF
