:100000000C9440000C947A060C94A1060C94C8063B
:100010000C9455070C9455070C9455070C945507F0
:100020000C9455070C9455070C9455070C94EF0647
:100030000C9455070C9455070C9455070C945507D0
:100040000C9455070C9455070C9455070C945507C0
:100050000C94550700600132000EB801320138805F
:100060000138014F000F8A014F015480015401559E
:10007000000FA101550157800157015A000FA2003E
:1000800011241FBECFE5D8E0DEBFCDBFE4E5F0E030
:1000900040E017C0B591A59135912591059107FDD7
:1000A0000CC095918591EF01F92FE82F05900D92E5
:1000B000A217B307D9F7FE0104C01D92A217B30718
:1000C000E1F7EF37F40731F70E946A000C943B0721
:0400D000F894FFCFD2
:1000D4000E945C050E94FC0283E090E00E944607B7
:1000E4008F3F19F081E08093530180915301811176
:1000F4003CC08091520181110AC040E06BE189EC5F
:1001040090E00E94520681E080935201EECF66E5B2
:1001140071E08DE890E00E94B80380915601882335
:1001240021F36091550170E00E942F0740E0609137
:10013400560181E00E94DE0180915501833069F40B
:100144000E944F0740E06BE18DEA90E00E94520666
:100154001092520181E080935301809155018F5F89
:100164008093550110925601C0CF813009F089C0A7
:1001740090915101943008F084C080915201811112
:100184000CC00E944F0740E069E088E291E00E94C1
:10019400520681E080935201A8CF66E571E08DE8B4
:1001A40090E00E94B80380915601882309F49DCF02
:1001B4006091540170E00E942F0740E06091560165
:1001C40081E00E94DE011092560180915401873033
:1001D40009F051C00E944F07C0E04AC00C2F10E044
:1001E400C8010E944607D82F780124E0E20EF11CD2
:1001F400C7010E944607D817D9F040E06EE085EFAA
:1002040090E00E945206809151018F5F80935101CA
:10021400833041F41092520140E06BE081E191E0BF
:100224000E94520683E0809354011092520123C02D
:10023400C8010E944607182FC7010E9446071813D9
:1002440016C0C330A1F440E06AE08DE191E00E9461
:1002540052068FEF99E628E1815090402040E1F763
:1002640000C000001092520182E080935301CF5FDE
:10027400C43008F4B3CF809154018F5F809354014C
:1002840034CF823009F031CF8091520181110BC0FB
:100294000E944F0740E06CE084E091E00E94520627
:1002A40081E08093520166E571E08DE890E00E9460
:1002B400B80360915601662309F417CF40E081E04A
:1002C4000E94DE010E94190680915601823351F189
:1002D400833309F44BC0813309F06BC081E00E9481
:1002E4001B078FEF91EE24E0815090402040E1F70E
:1002F40000C000000E94060780935901811109C0C3
:100304000E944F0740E063E088E391E00E945206B8
:1003140050C00E944F0740E062E08CE491E00E94EC
:10032400520647C082E00E941B078FEF91EE24E043
:10033400815090402040E1F700C000000E94060771
:1003440080935801811109C00E944F0740E063E087
:1003540088E391E00E9452062CC00E944F0740E0BF
:1003640062E08CE491E00E94520623C083E00E9484
:100374001B078FEF91EE24E0815090402040E1F77D
:1003840000C000000E94060780935701811109C034
:100394000E944F0740E063E088E391E00E94520628
:1003A40008C00E944F0740E062E08CE491E00E94A4
:0803B40052061092560199CE89
:1003BC006F927F928F929F92AF92BF92CF92DF9269
:1003CC00EF92FF920F931F93CF93DF934111FFC0D6
:1003DC00811108C08DE2489FF0011124E05AFF4FB3
:1003EC0013A209C0813039F49DE2499FF001112418
:1003FC00E05AFF4F83A3762EC42FD0E08DE28C9F62
:10040C0080018D9F100D1124F801E05AFF4F7F01E0
:10041C0017A2C80180589F4F0E94D204C8018C5764
:10042C009F4F0E94D204F70184A581116EC0872DC5
:10043C00807F84FB992790F9E701938B85FB9927A3
:10044C0090F9978B86FB992790F9938F87FB8827D8
:10045C0080F9878FC80180599F4F5C010E94D2049C
:10046C00F801EC58FF4F6F01CF010E94D204C80174
:10047C0088589F4F7C010E94D204F801E458FF4F2A
:10048C004F01CF010E94D204662463946BA60857D7
:10049C001F4FC8010E94D2048FE39CE90197F1F72A
:1004AC0000C000001BA6C8010E94D204770C770C78
:1004BC00770C770C74FA882780F98B8B75FA882760
:1004CC0080F98F8B76FA882780F98B8F77FA7724CF
:1004DC0070F87F8EC5010E94D204C6010E94D2041E
:1004EC00C7010E94D204C4010E94D2046BA6C801A9
:1004FC000E94D204EFE3FCE93197F1F700C0000051
:10050C001BA6C8010E94D20462C0813009F05FC0F2
:10051C00872D81709DE29C9F80019D9F100D112461
:10052C00E801C05ADF4F8B8371FA882780F98F83DB
:10053C0072FA882780F98B8773FA882780F98F875E
:10054C0074FA882780F98B8B75FA882780F98F8B42
:10055C0076FA882780F98B8F77FA772470F87F8E5C
:10056C00CE010E94D204C8018C599F4F0E94D20424
:10057C00C80188599F4F0E94D204C80184599F4FCB
:10058C000E94D204C80180599F4F0E94D204C80116
:10059C008C589F4F0E94D204C80188589F4F0E94CC
:1005AC00D204C80184589F4F0E94D20481E08BA7CB
:1005BC0008571F4FC8010E94D2048FE39CE9019792
:1005CC00F1F700C000001BA6C8010E94D204DF9105
:1005DC00CF911F910F91FF90EF90DF90CF90BF9034
:0C05EC00AF909F908F907F906F900895CB
:1005F800EF92FF920F931F93CF93C0E0ACC0EC2E05
:10060800F12C8DE28E9D80018F9D100D1124C80163
:1006180080589F4F0E944804C8018C579F4F0E94E2
:100628004804C80188579F4F0E944804F801E05ABF
:10063800FF4F84A5813039F5CF010E944804C801D5
:100648008C599F4F0E944804C80188599F4F0E94A7
:100658004804C80184599F4F0E944804C801805922
:100668009F4F0E944804C8018C589F4F0E9448041D
:10067800C80188589F4F0E944804C80184589F4F5A
:100688000E9448041CC081111AC08DE28E9D800111
:100698008F9D100D1124C80180599F4F0E94480456
:1006A800C8018C589F4F0E944804C80188589F4F22
:1006B8000E944804C80184589F4F0E9448042FEFA5
:1006C80086E791E0215080409040E1F700C00000AB
:1006D8008DE28E9DF0018F9DF00D1124E05AFF4FA1
:1006E80084A5813031F44C2F68E380E00E94DE015C
:1006F80010C081110EC04C2F63E30E94DE014C2F05
:1007080062E380E00E94DE014C2F68E280E00E94F4
:10071800DE018FE99FE00197F1F700C000004C2F40
:100728006FE080E00E94DE018FE99FE00197F1F71A
:1007380000C000004C2F61E080E00E94DE018FE9DC
:100748009FE00197F1F700C000004C2F66E080E0C1
:100758000E94DE01CF5FCC2309F451CFCF911F91C6
:080768000F91FF90EF9008953E
:100770006F927F928F929F92AF92BF92CF92DF92B1
:10078000EF92FF920F931F93CF93DF930F92CDB70A
:10079000DEB77C0191E099836115710509F467C0AA
:1007A0004B01612C5EC0C62CD12CF601EE0FFF1F51
:1007B000EE0FFF1FEE0DFF1D138A560184E0A80EF9
:1007C000B11CAA0CBB1CAA0CBB1CAE0CBF1CC501E7
:1007D0000E94D204712C35C0872D90E0880F991F9C
:1007E000880F991FBE016F5F7F4F83579F4F0E94F5
:1007F000C4058981811124C0072D10E0F801EE0F96
:10080000FF1FEE0FFF1FEB51FF4FEC0DFD1D808111
:10081000F40180830CC0BE016F5F7F4FC801880F59
:10082000991F880F991F8E0D9F1D0E94C4058981F5
:10083000882389F38FE59AEE0197F1F700C0000055
:10084000739493E0971540F6CC0CDD1CCC0CDD1CAA
:10085000F701EC0DFD1D81E0838BC5010E94D204E0
:100860006394E3E0E61508F09ECF80E001C082E0EB
:100870000F90DF91CF911F910F91FF90EF90DF903C
:10088000CF90BF90AF909F908F907F906F90089582
:10089000FC012181243008F07DC03081383008F01F
:1008A0007BC08281823008F079C0213011F130F0B4
:1008B0002230D1F1233009F452C072C081110DC031
:1008C0002AB381E090E002C0880F991F3A95E2F7C1
:1008D000809582238ABB80E008952AB381E090E06E
:1008E00002C0880F991F3A95E2F7822B8ABB80E0FD
:1008F000089581110DC027B381E090E002C0880FF8
:10090000991F3A95E2F78095822387BB80E008958E
:1009100027B381E090E002C0880F991F3A95E2F773
:10092000822B87BB80E0089581110DC024B381E044
:1009300090E002C0880F991F3A95E2F780958223D4
:1009400084BB80E0089524B381E090E002C0880F6A
:10095000991F3A95E2F7822B84BB80E008958111BC
:100960000DC021B381E090E002C0880F991F3A9535
:10097000E2F78095822381BB80E0089521B381E076
:1009800090E002C0880F991F3A95E2F7822B81BB55
:1009900080E0089581E0089581E0089581E0089560
:0409A00080E0089556
:1009A400FC012181243008F07DC03081383008F00A
:1009B4007BC08381823008F079C0213011F130F09E
:1009C4002230D1F1233009F452C072C081110DC01C
:1009D4002BB381E090E002C0880F991F3A95E2F7AB
:1009E400809582238BBB80E008952BB381E090E057
:1009F40002C0880F991F3A95E2F7822B8BBB80E0E7
:100A0400089581110DC028B381E090E002C0880FE1
:100A1400991F3A95E2F78095822388BB80E0089578
:100A240028B381E090E002C0880F991F3A95E2F75D
:100A3400822B88BB80E0089581110DC025B381E02D
:100A440090E002C0880F991F3A95E2F780958223BF
:100A540085BB80E0089525B381E090E002C0880F53
:100A6400991F3A95E2F7822B85BB80E008958111A6
:100A74000DC022B381E090E002C0880F991F3A951F
:100A8400E2F78095822382BB80E0089522B381E05F
:100A940090E002C0880F991F3A95E2F7822B82BB3F
:100AA40080E0089581E0089581E0089581E008954B
:040AB40080E0089541
:100AB8008F929F92AF92BF92CF92DF92EF92FF9266
:100AC8001F93CF93DF9310E04CC080E2189FE001A2
:100AD8001124CE0183579F4F4C010E944804CE0138
:100AE8008F569F4F5C010E944804CE018B569F4F42
:100AF8006C010E944804CE0187569F4F7C010E94DA
:100B08004804C4010E94D204C5010E94D204C6014F
:100B18000E94D204C7010E94D204CE0183569F4F7F
:100B28005C010E944804CE018F559F4F6C010E94C2
:100B38004804CE018B559F4F7C010E944804C7553D
:100B4800DF4FCE010E944804C5010E94D204C601AD
:100B58000E94D204C7010E94D204CE010E94D2048E
:100B68001F5F112309F4B1CFDF91CF911F91FF903F
:100B7800EF90DF90CF90BF90AF909F908F900895A7
:100B8800FC016115710509F448C09181943008F0A1
:100B980046C08081883008F044C09130A1F028F028
:100BA8009230F9F0933059F13EC029B330E0A901F1
:100BB80002C0559547958A95E2F7CA018170FB01F5
:100BC800808380E0089526B330E0A90102C05595DE
:100BD80047958A95E2F7CA018170FB01808380E01E
:100BE800089523B330E0A90102C0559547958A9529
:100BF800E2F7CA018170FB01808380E0089520B389
:100C080030E0A90102C0559547958A95E2F7CA01D7
:100C18008170FB01808380E0089582E0089581E07F
:0A0C2800089581E0089580E008952A
:100C3200CF93C1E0C0934601C0933E01109242019E
:100C420084E491E00E94480480E491E00E94480418
:100C52008CE391E00E944804E8E4F1E0C283C3839C
:100C6200CF010E94480488E491E00E94D2048DB131
:100C720080648DB98DB18F7D8DB98DB180618DB953
:100C82008DB188608DB98DB184608DB98DB181606F
:100C92008DB98DB18D7F8DB98EB181608EB9CF91B5
:020CA2000895B3
:100CA400EF92FF920F931F93CF93DF937C01D62F84
:100CB400142FC0E000E013C0CF3041F4011106C08E
:100CC400412F60EC80E00E94DE0101E0F701EC0FAF
:100CD400F11D412F608181E00E94DE01CF5FCD17BD
:100CE40058F3DF91CF911F910F91FF90EF900895EA
:100CF4001F920F920FB60F9211242F933F934F938D
:100D04005F936F937F938F939F93AF93BF93EF936F
:100D1400FF93E0913201F09133010995FF91EF9136
:100D2400BF91AF919F918F917F916F915F914F91FF
:0E0D34003F912F910F900FBE0F901F901895BA
:100D42001F920F920FB60F9211242F933F934F933E
:100D52005F936F937F938F939F93AF93BF93EF9321
:100D6200FF93E0913401F09135010995FF91EF91E4
:100D7200BF91AF919F918F917F916F915F914F91B1
:0E0D82003F912F910F900FBE0F901F9018956C
:100D90001F920F920FB60F9211242F933F934F93F0
:100DA0005F936F937F938F939F93AF93BF93EF93D3
:100DB000FF93E0913601F09137010995FF91EF9192
:100DC000BF91AF919F918F917F916F915F914F9163
:0E0DD0003F912F910F900FBE0F901F9018951E
:100DDE001F920F920FB60F9211248F939F938091B3
:100DEE004F019091500101969093500180934F01C5
:0E0DFE009F918F910F900FBE0F901F90189530
:100E0C00CF9310924B0188E491E00E94D2041FB85A
:100E1C00779BFECFCFB181E080934B0188E491E0CA
:0A0E2C000E94D2048C2FCF9108958C
:100E3600CF93C82F10924B0188E491E00E94D20410
:100E4600CFB9779BFECF81E080934B0188E491E098
:080E56000E94D204CF9108951F
:100E5E00E199FECF7FBB6EBB8DBB8CB384608CBB28
:080E6E008CB382608CBB089577
:100E7600EC010E945A070E945907CE010E945B07A7
:060E8600CE010E94570797
:100E8C00E199FECF9FBB8EBB8CB381608CBB8DB3C5
:020E9C000895B7
:0C0E9E0040E061E080E00E94DE01089569
:040EAA000C940000A4
:040EAE000E94680036
:020EB2000895A1
:020EB40008959F
:020EB60008959D
:100EB800000001010100010102000101030001011C
:100EC80004000101050001010600010107000101FC
:0D0ED80001010101020101010301010100FE
:100EE50000020001010200010202000103020001EB
:100EF50004020101050201010602010107020101C7
:100F050070617373776F72642073617665642073A3
:0C0F150075636365737366756C6C79001E
:100F21005365742041646D696E2050617373206F45
:0C0F3100662034206469676974733A001C
:100F3D003738392F343536783132332D43303D2B18
:0F0F4D0077726F6E672070617373776F726400D5
:0D0F5C00526F6F6D203120746F20393A0004
:0C0F6900526573746172742E2E2E2E00DF
:0B0F750077656C636F6D65203A290002
:0A0F800070617373776F72643A00BA
:040F8A006F66660028
:040F8E000701010155
:040F92000601010152
:040F9600050101014F
:040F9A00040101004D
:030F9E006F6E0073
:010FA100044B
:010FA20064EA
:010FA30064E9
:010FA40064E8
:00000001FF
