:100000000C944A000C94D4080C94FB080C9422091C
:100010000C94170A0C94170A0C94170A0C947C0879
:100020000C94170A0C94170A0C94170A0C94C00924
:100030000C94170A0C94170A0C94170A0C94170ABC
:100040000C94170A0C94170A0C94170A0C94170AAC
:100050000C94170A9D00F00042019501E8013B0253
:100060008E02E1020060006A80006A011800143C00
:100070000118011E80011E01220014EA012201263E
:1000800080012601390014EE013901448001440148
:100090004500150111241FBECFE5D8E0DEBFCDBF5E
:1000A000E4E6F0E040E017C0B591A59135912591C7
:1000B000059107FD0CC095918591EF01F92FE82F6F
:1000C00005900D92A217B307D9F7FE0104C01D9247
:1000D000A217B307E1F7E439F40731F70E944909A1
:0800E0000C94FF09F894FFCF16
:1000E800C1C240E06CE086EE90E00E94AB0881E07F
:1000F80080933F0164E471E087E990E00E941C0569
:1001080060914401613009F4ADC240E081E00E9491
:100118003C030E94D607E09144018E2F90E0FC0139
:10012800F097E830F10508F09AC2E65DFF4F0C94AD
:10013800110A81E08093440180E00E94D7092FEFE3
:1001480081EE94E0215080409040E1F700C000002B
:1001580080E690E00E948C090E940A0A40E067E06D
:1001680088E091E00E94AB0880916000882339F014
:1001780040E062E086E391E00E94AB0806C040E000
:1001880063E08EE191E00E94AB0840E060EC80E023
:100198000E943C0340E06AE083EF90E00E94AB08D5
:1001A80016C064E471E087E990E00E941C05609144
:1001B8004401613061F040E081E00E943C0380919D
:1001C80044010E94D7090E940A0A10923F018091B7
:1001D8004401813031F343C281E0809344010E949D
:1001E800D7092FEF81EE94E0215080409040E1F74D
:1001F80000C0000081E690E00E948C090E940A0A73
:1002080040E067E088E091E00E94AB0880916100DF
:10021800882339F040E062E086E391E00E94AB0871
:1002280006C040E063E08EE191E00E94AB0840E048
:1002380060EC80E00E943C0340E06AE083EF90E0DD
:100248000E94AB0816C064E471E087E990E00E9460
:100258001C0560914401613061F040E081E00E943A
:100268003C03809144010E94D7090E940A0A109217
:100278003F0180914401813031F3F1C181E08093E5
:10028800440182E00E94D7092FEF81EE94E02150CB
:1002980080409040E1F700C0000082E690E00E94B4
:1002A8008C090E940A0A40E067E088E091E00E9419
:1002B800AB0880916200882339F040E062E086E371
:1002C80091E00E94AB0806C040E063E08EE191E057
:1002D8000E94AB0840E060EC80E00E943C0340E0F4
:1002E8006AE083EF90E00E94AB0816C064E471E016
:1002F80087E990E00E941C0560914401613061F03B
:1003080040E081E00E943C03809144010E94D709AB
:100318000E940A0A10923F0180914401813031F312
:100328009EC181E08093440183E00E94D7092FEFAA
:1003380081EE94E0215080409040E1F700C0000039
:1003480083E690E00E948C090E940A0A40E067E078
:1003580088E091E00E94AB0880916300882339F01F
:1003680040E062E086E391E00E94AB0806C040E00E
:1003780063E08EE191E00E94AB0840E060EC80E031
:100388000E943C0340E06AE083EF90E00E94AB08E3
:1003980016C064E471E087E990E00E941C05609152
:1003A8004401613061F040E081E00E943C038091AB
:1003B80044010E94D7090E940A0A10923F018091C5
:1003C8004401813031F34BC181E08093440184E0E2
:1003D8000E94D7092FEF81EE94E021508040904091
:1003E800E1F700C0000084E690E00E948C090E94BA
:1003F8000A0A40E067E088E091E00E94AB0880913B
:100408006400882339F040E062E086E391E00E94CE
:10041800AB0806C040E063E08EE191E00E94AB08C3
:1004280040E060EC80E00E943C0340E06AE083EF3B
:1004380090E00E94AB0816C064E471E087E990E0A0
:100448000E941C0560914401613061F040E081E048
:100458000E943C03809144010E94D7090E940A0A25
:1004680010923F0180914401813031F3F8C081E05E
:100478008093440185E00E94D7092FEF81EE94E034
:10048800215080409040E1F700C0000085E690E0F0
:100498000E948C090E940A0A40E067E088E091E027
:1004A8000E94AB0880916500882339F040E062E043
:1004B80086E391E00E94AB0806C040E063E08EE16D
:1004C80091E00E94AB0840E060EC80E00E943C03B1
:1004D80040E06AE083EF90E00E94AB0816C064E455
:1004E80071E087E990E00E941C0560914401613049
:1004F80061F040E081E00E943C03809144010E9449
:10050800D7090E940A0A10923F0180914401813064
:1005180031F3A5C081E08093440186E00E94D709A9
:100528002FEF81EE94E0215080409040E1F700C029
:10053800000086E690E00E948C090E940A0A40E0CA
:1005480067E088E091E00E94AB088091660088230C
:1005580039F040E062E086E391E00E94AB0806C013
:1005680040E063E08EE191E00E94AB0840E060EC7F
:1005780080E00E943C0340E06AE083EF90E00E9444
:10058800AB0816C064E471E087E990E00E941C059E
:1005980060914401613061F040E081E00E943C03D9
:1005A800809144010E94D7090E940A0A10923F01D3
:1005B80080914401813031F352C081E0809344013D
:1005C80087E00E94D7092FEF81EE94E02150804008
:1005D8009040E1F700C0000087E690E00E948C0997
:1005E8000E940A0A40E067E088E091E00E94AB08B8
:1005F80080916700882339F040E062E086E391E06B
:100608000E94AB0806C040E063E08EE191E00E94E2
:10061800AB0840E060EC80E00E943C0340E06AE008
:1006280083EF90E00E94AB0816C064E471E087E9AC
:1006380090E00E941C0560914401613061F040E047
:1006480081E00E943C03809144010E94D7090E94E6
:100658000A0A10923F0180914401813031F381E010
:100668008093440180913F01882309F43ACD42CD1B
:100678006F927F928F929F92AF92BF92CF92DF92AA
:10068800EF92FF920F931F93CF93DF93823008F07E
:1006980002C14111FEC0811108C08DE2489FF001DE
:1006A8001124E659FF4F13A209C0813039F49DE2A5
:1006B800499FF0011124E659FF4F83A3762EC42FDA
:1006C800D0E08DE28C9F80018D9F100D1124F801E0
:1006D800E659FF4F7F0117A2C80186579F4F0E9416
:1006E8004106C80182579F4F0E944106F70184A521
:1006F80081116DC0872D807F84FB992790F9E701D0
:10070800938B85FB992790F9978B86FB992790F90E
:10071800938F87FB882780F9878FC80186589F4F5A
:100728005C010E944106F801E258FF4F6F01CF01BA
:100738000E944106C8018E579F4F7C010E944106C6
:10074800F801EA57FF4F4F01CF010E944106662486
:1007580063946BA60E561F4FC8010E9441068FE393
:100768009CE90197F1F700C000001BA6C8010E9490
:100778004106672D6295607F64FB882780F98B8B23
:1007880065FB882780F98F8B66FB882780F98B8F1C
:1007980067FB662760F96F8FC5010E944106C60195
:1007A8000E944106C7010E944106C4010E944106F9
:1007B8006BA6C8010E944106EFE3FCE93197F1F707
:1007C80000C000001BA6C8010E94410662C081301B
:1007D80009F05FC0872D81709DE29C9F80019D9FDD
:1007E800100D1124E801C659DF4F8B8371FA882751
:1007F80080F98F8372FA882780F98B8773FA8827A4
:1008080080F98F8774FA882780F98B8B75FA882787
:1008180080F98F8B76FA882780F98B8F77FA66278D
:1008280060F96F8FCE010E944106C80182599F4F1F
:100838000E944106C8018E589F4F0E944106C80178
:100848008A589F4F0E944106C80186589F4F0E94B0
:100858004106C80182589F4F0E944106C8018E5721
:100868009F4F0E944106C8018A579F4F0E94410628
:1008780081E08BA70E561F4FC8010E9441068FE3E7
:100888009CE90197F1F700C000001BA6C8010E946F
:10089800410680E001C081E0DF91CF911F910F9167
:1008A800FF90EF90DF90CF90BF90AF909F908F9088
:0608B8007F906F9008958F
:1008BE00EF92FF920F931F93CF93C0E0ACC0EC2E3C
:1008CE00F12C8DE28E9D80018F9D100D1124C8019B
:1008DE0086579F4F0E94B705C80182579F4F0E94AF
:1008EE00B705C8018E569F4F0E94B705F801E6590D
:1008FE00FF4F84A5813039F5CF010E94B705C8019D
:10090E0082599F4F0E94B705C8018E589F4F0E9473
:10091E00B705C8018A589F4F0E94B705C80186586F
:10092E009F4F0E94B705C80182589F4F0E94B7057E
:10093E00C8018E579F4F0E94B705C8018A579F4F17
:10094E000E94B7051CC081111AC08DE28E9D8001D8
:10095E008F9D100D1124C80186589F4F0E94B70518
:10096E00C80182589F4F0E94B705C8018E579F4FEE
:10097E000E94B705C8018A579F4F0E94B7052FEFF7
:10098E0086E791E0215080409040E1F700C00000E2
:10099E008DE28E9DF0018F9DF00D1124E659FF4FD3
:1009AE0084A5813031F44C2F68E380E00E943C0333
:1009BE0010C081110EC04C2F63E30E943C034C2FDC
:1009CE0062E380E00E943C034C2F68E280E00E94CC
:1009DE003C038FE99FE00197F1F700C000004C2F18
:1009EE006FE080E00E943C038FE99FE00197F1F7F2
:1009FE0000C000004C2F61E080E00E943C038FE9B4
:100A0E009FE00197F1F700C000004C2F66E080E0F8
:100A1E000E943C03CF5FCC2309F451CF80E0CF91ED
:0A0A2E001F910F91FF90EF900895C3
:100A38006F927F928F929F92AF92BF92CF92DF92E6
:100A4800EF92FF920F931F93CF93DF930F92CDB73F
:100A5800DEB7009709F474C06115710509F472C016
:100A680021E029836115710509F468C04B018C01E7
:100A7800612C5EC0C62CD12CF601EE0FFF1FEE0FC5
:100A8800FF1FE00FF11F138A560184E0A80EB11C66
:100A9800AA0CBB1CAA0CBB1CA00EB11EC5010E944F
:100AA8004106712C35C0872D90E0880F991F880F5B
:100AB800991FBE016F5F7F4F89569F4F0E94340771
:100AC8008981811124C0E72CF12CF701EE0FFF1F5B
:100AD800EE0FFF1FE954FF4FEC0DFD1D8081F4015F
:100AE80080830CC0BE016F5F7F4FC701880F991FBD
:100AF800880F991F800F911F0E94340789818823CE
:100B080089F38FE59AEE0197F1F700C0000073941E
:100B180093E0971540F6CC0CDD1CCC0CDD1CF801DD
:100B2800EC0DFD1D81E0838BC5010E944106639495
:100B3800E3E0E61508F09ECF80E005C082E003C040
:100B480082E001C082E00F90DF91CF911F910F9159
:100B5800FF90EF90DF90CF90BF90AF909F908F90D5
:060B68007F906F900895DC
:100B6E00FC012181243008F07DC03081383008F03E
:100B7E007BC08281823008F079C0213011F130F0D3
:100B8E002230D1F1233009F452C072C081110DC050
:100B9E002AB381E090E002C0880F991F3A95E2F7E0
:100BAE00809582238ABB80E008952AB381E090E08D
:100BBE0002C0880F991F3A95E2F7822B8ABB80E01C
:100BCE00089581110DC027B381E090E002C0880F17
:100BDE00991F3A95E2F78095822387BB80E00895AE
:100BEE0027B381E090E002C0880F991F3A95E2F793
:100BFE00822B87BB80E0089581110DC024B381E064
:100C0E0090E002C0880F991F3A95E2F780958223F3
:100C1E0084BB80E0089524B381E090E002C0880F89
:100C2E00991F3A95E2F7822B84BB80E008958111DB
:100C3E000DC021B381E090E002C0880F991F3A9554
:100C4E00E2F78095822381BB80E0089521B381E095
:100C5E0090E002C0880F991F3A95E2F7822B81BB74
:100C6E0080E0089581E0089581E0089581E008957F
:040C7E0080E0089575
:100C8200FC012181243008F07DC03081383008F029
:100C92007BC08381823008F079C0213011F130F0BD
:100CA2002230D1F1233009F452C072C081110DC03B
:100CB2002BB381E090E002C0880F991F3A95E2F7CA
:100CC200809582238BBB80E008952BB381E090E076
:100CD20002C0880F991F3A95E2F7822B8BBB80E006
:100CE200089581110DC028B381E090E002C0880F01
:100CF200991F3A95E2F78095822388BB80E0089598
:100D020028B381E090E002C0880F991F3A95E2F77C
:100D1200822B88BB80E0089581110DC025B381E04C
:100D220090E002C0880F991F3A95E2F780958223DE
:100D320085BB80E0089525B381E090E002C0880F72
:100D4200991F3A95E2F7822B85BB80E008958111C5
:100D52000DC022B381E090E002C0880F991F3A953E
:100D6200E2F78095822382BB80E0089522B381E07E
:100D720090E002C0880F991F3A95E2F7822B82BB5E
:100D820080E0089581E0089581E0089581E008956A
:040D920080E0089560
:100D96008F929F92AF92BF92CF92DF92EF92FF9285
:100DA6001F93CF93DF9310E04CC080E2189FE001C1
:100DB6001124CE0189569F4F4C010E94B705CE01E2
:100DC60085569F4F5C010E94B705CE0181569F4F05
:100DD6006C010E94B705CE018D559F4F7C010E9484
:100DE600B705C4010E944106C5010E944106C6011D
:100DF6000E944106C7010E944106CE0189559F4FB8
:100E06005C010E94B705CE0185559F4F6C010E947B
:100E1600B705CE0181559F4F7C010E94B705CD5481
:100E2600DF4FCE010E94B705C5010E944106C601EB
:100E36000E944106C7010E944106CE010E9441065A
:100E46001F5F112309F4B1CF80E0DF91CF911F918D
:100E5600FF90EF90DF90CF90BF90AF909F908F90D4
:020E66000895ED
:100E6800FC016115710509F448C09181943008F0BE
:100E780046C08081883008F044C09130A1F028F045
:100E88009230F9F0933059F13EC029B330E0A9010E
:100E980002C0559547958A95E2F7CA018170FB0112
:100EA800808380E0089526B330E0A90102C05595FB
:100EB80047958A95E2F7CA018170FB01808380E03B
:100EC800089523B330E0A90102C0559547958A9546
:100ED800E2F7CA018170FB01808380E0089520B3A6
:100EE80030E0A90102C0559547958A95E2F7CA01F5
:100EF8008170FB01808380E0089582E0089581E09D
:0A0F0800089581E0089580E0089547
:100F1200CF93DF9380913E01833030F182E042C073
:100F220062E471E0CE010E94A90961E471E0CE01A0
:100F320004960E94A909909142018091410198175B
:100F420089F081E080933D0180913E018F5F809323
:100F52003E0140E06EE087ED90E00E94AB080E9407
:100F62000A0A07C0219602C0C0E0D0E0C430D10511
:100F7200BCF280913D01813051F040E067E080E1B8
:100F820091E00E94AB080E940A0A83E00BC084E051
:100F920090E090933A01809339018093430110923B
:0A0FA2003D0181E0DF91CF91089539
:100FAC00CF93C1E0C0933001C093280110922C0163
:100FBC008EE291E00E94B7058AE291E00E94B705AB
:100FCC0086E291E00E94B705E2E3F1E0C283C383BD
:100FDC00CF010E94B70582E391E00E9441068DB1DA
:100FEC0080648DB98DB18F7D8DB98DB180618DB9D6
:100FFC008DB188608DB98DB184608DB98DB18160F2
:10100C008DB98DB18D7F8DB98EB181608EB980E037
:04101C00CF910895D3
:1010200040E060E187EC90E00E94AB0827C064E4F8
:1010300071E087E990E00E941C05609144016130F5
:10104000E9F040E081E00E943C0360913901709139
:101050003A01809144010E94EC09809139019091FC
:101060003A01019690933A018093390180914301AE
:101070008F5F8093430181E080934401809143011D
:0C1080008430A9F60E940A0A81E008955D
:10108C0040E069E08EEF90E00E94AB0827C064E47A
:10109C0071E087E990E00E941C0560914401613089
:1010AC00E9F040E081E00E943C03609139017091CD
:1010BC003A01809144010E94EC0980913901909190
:1010CC003A01019690933A01809339018091430142
:1010DC008F5F8093430181E08093440180914301B1
:0C10EC008830A9F60E940A0A82E00895EC
:1010F8001F920F920FB60F9211242F933F934F9385
:101108005F936F937F938F939F93AF93BF93EF9367
:10111800FF936091220170912301809124019091A5
:101128002501E0916800F09169000995FF91EF9120
:10113800BF91AF919F918F917F916F915F914F91E7
:0E1148003F912F910F900FBE0F901F901895A2
:10115600EF92FF920F931F93CF93DF937C01D62FCD
:10116600142FC0E000E013C0CF3041F4011106C0D7
:10117600412F60EC80E00E943C0301E0F701EC0F98
:10118600F11D412F608181E00E943C03CF5FCD17A6
:1011960058F380E0DF91CF911F910F91FF90EF9070
:0211A6000895AA
:1011A8001F920F920FB60F9211242F933F934F93D4
:1011B8005F936F937F938F939F93AF93BF93EF93B7
:1011C800FF93E0911801F09119010995FF91EF91B2
:1011D800BF91AF919F918F917F916F915F914F9147
:0E11E8003F912F910F900FBE0F901F90189502
:1011F6001F920F920FB60F9211242F933F934F9386
:101206005F936F937F938F939F93AF93BF93EF9368
:10121600FF93E0911A01F0911B010995FF91EF915F
:10122600BF91AF919F918F917F916F915F914F91F8
:0E1236003F912F910F900FBE0F901F901895B3
:101244001F920F920FB60F9211242F933F934F9337
:101254005F936F937F938F939F93AF93BF93EF931A
:10126400FF93E0911C01F0911D010995FF91EF910D
:10127400BF91AF919F918F917F916F915F914F91AA
:0E1284003F912F910F900FBE0F901F90189565
:101292000E94CB060E945F040E946C098093400169
:1012A20080914001813059F028F0823069F083301A
:1012B20081F0F6CF0E94100880934001F1CF0E9486
:1012C200460880934001ECCF0E9489078093400139
:0612D200E7CF0E9474004A
:1012D800CF93DF930F92CDB7DEB71982BE016F5F50
:1012E8007F4F83E090E00E94A90989818F3F59F0E0
:1012F80084E08093430184E090E090933A018093E6
:10130800390181E001C080E00F90DF91CF9108950D
:10131800CF93DF930097A9F0EC011092350182E397
:1013280091E00E9441061FB8779BFECF8FB188835A
:1013380081E08093350182E391E00E94410680E0DC
:0A13480001C082E0DF91CF9108950B
:101352006115710581F0813024E0920770F4E19902
:10136200FECF9FBB8EBB8CB381608CBB8DB3FB0168
:0E137200808380E0089582E0089581E0089570
:101380001F920F920FB60F9211248F939F9380910B
:101390003B0190913C01019690933C0180933B016D
:0E13A0009F918F910F900FBE0F901F90189588
:1013AE00CF93C82F1092350182E391E00E9441063F
:1013BE00CFB9779BFECF81E08093350182E391E038
:0A13CE000E94410680E0CF910895CF
:1013D800613094E0790768F4E199FECF7FBB6EBB7A
:1013E8008DBB8CB384608CBB8CB382608CBB80E07B
:0613F800089581E0089554
:1013FE00EC010E941C0A0E941B0ACE010E941D0ACB
:06140E00CE010E94190A44
:0E14140040E061E080E00E943C0380E008952B
:0C142200EE0FFF1F0590F491E02D0994DF
:04142E000C9400001A
:041432000E947200A2
:02143600089517
:02143800089515
:02143A00089513
:10143C000000010101000101020001010300010192
:10144C000400010105000101060001010700010172
:0D145C000101010102010101030101010074
:101469000002000101020001020200010302000161
:10147900040201010502010106020101070201013D
:101489003738392F343536783132332D43303D2BC7
:101499007365745F61646D696E5F706173733A003F
:0F14A90077726F6E672070617373776F72640074
:0D14B800526F6F6D203020746F20373A00A6
:0B14C5004F4E3A312D4F46463A3000A2
:0A14D00070617373776F72643A0065
:0814DA007374617475733A002C
:0814E20077656C636F6D650016
:0414EA004F46460023
:0414EE0007010101F0
:0414F20006010101ED
:0414F60005010101EA
:0414FA0004010100E8
:0314FE004F4E004E
:0115010001E8
:00000001FF
